{
  "_format": "hh-sol-artifact-1",
  "contractName": "SongPortal",
  "sourceName": "contracts/SongPortal.sol",
  "abi": [
    {
      "inputs": [],
      "stateMutability": "payable",
      "type": "constructor"
    },
    {
      "anonymous": false,
      "inputs": [
        {
          "indexed": true,
          "internalType": "address",
          "name": "from",
          "type": "address"
        },
        {
          "indexed": false,
          "internalType": "uint256",
          "name": "timestamp",
          "type": "uint256"
        },
        {
          "indexed": false,
          "internalType": "string",
          "name": "message",
          "type": "string"
        }
      ],
      "name": "newSong",
      "type": "event"
    },
    {
      "inputs": [],
      "name": "getAllSongs",
      "outputs": [
        {
          "components": [
            {
              "internalType": "address",
              "name": "song_sender",
              "type": "address"
            },
            {
              "internalType": "string",
              "name": "message",
              "type": "string"
            },
            {
              "internalType": "uint256",
              "name": "timestamp",
              "type": "uint256"
            }
          ],
          "internalType": "struct SongPortal.Song[]",
          "name": "",
          "type": "tuple[]"
        }
      ],
      "stateMutability": "view",
      "type": "function"
    },
    {
      "inputs": [],
      "name": "getTotalSongs",
      "outputs": [
        {
          "internalType": "uint256",
          "name": "",
          "type": "uint256"
        }
      ],
      "stateMutability": "view",
      "type": "function"
    },
    {
      "inputs": [
        {
          "internalType": "address",
          "name": "",
          "type": "address"
        }
      ],
      "name": "lastWavedAt",
      "outputs": [
        {
          "internalType": "uint256",
          "name": "",
          "type": "uint256"
        }
      ],
      "stateMutability": "view",
      "type": "function"
    },
    {
      "inputs": [
        {
          "internalType": "string",
          "name": "_message",
          "type": "string"
        }
      ],
      "name": "song",
      "outputs": [],
      "stateMutability": "nonpayable",
      "type": "function"
    }
  ],
  "bytecode": "0x6080604052620000336040518060600160405280603681526020016200131f603691396200003960201b6200068a1760201c565b620001cd565b620000d98160405160240162000050919062000146565b6040516020818303038152906040527f41304fac000000000000000000000000000000000000000000000000000000007bffffffffffffffffffffffffffffffffffffffffffffffffffffffff19166020820180517bffffffffffffffffffffffffffffffffffffffffffffffffffffffff8381831617835250505050620000dc60201b60201c565b50565b60008151905060006a636f6e736f6c652e6c6f679050602083016000808483855afa5050505050565b600062000112826200016a565b6200011e818562000175565b93506200013081856020860162000186565b6200013b81620001bc565b840191505092915050565b6000602082019050818103600083015262000162818462000105565b905092915050565b600081519050919050565b600082825260208201905092915050565b60005b83811015620001a657808201518184015260208101905062000189565b83811115620001b6576000848401525b50505050565b6000601f19601f8301169050919050565b61114280620001dd6000396000f3fe608060405234801561001057600080fd5b506004361061004c5760003560e01c8063236292741461005157806329ef68621461006d5780638c9db2b41461008b578063a42a4663146100a9575b600080fd5b61006b600480360381019061006691906109cd565b6100d9565b005b6100756104d6565b6040516100829190610cd0565b60405180910390f35b610093610627565b6040516100a09190610dd4565b60405180910390f35b6100c360048036038101906100be91906109a4565b610672565b6040516100d09190610dd4565b60405180910390f35b42601e600360003373ffffffffffffffffffffffffffffffffffffffff1673ffffffffffffffffffffffffffffffffffffffff168152602001908152602001600020546101269190610ef1565b10610166576040517f08c379a000000000000000000000000000000000000000000000000000000000815260040161015d90610d74565b60405180910390fd5b42600360003373ffffffffffffffffffffffffffffffffffffffff1673ffffffffffffffffffffffffffffffffffffffff1681526020019081526020016000208190555060016000808282546101bc9190610ef1565b925050819055506102026040518060400160405280600f81526020017f25732073656e74206120736f6e6721000000000000000000000000000000000081525033610723565b600260405180606001604052803373ffffffffffffffffffffffffffffffffffffffff16815260200183815260200142815250908060018154018082558091505060019003906000526020600020906003020160009091909190915060008201518160000160006101000a81548173ffffffffffffffffffffffffffffffffffffffff021916908373ffffffffffffffffffffffffffffffffffffffff16021790555060208201518160010190805190602001906102c1929190610884565b506040820151816002015550506000606460015442446102e19190610ef1565b6102eb9190610ef1565b6102f59190610ff7565b90506103366040518060400160405280601881526020017f52616e646f6d206e756d2067656e6572617465643a2025730000000000000000815250826107bf565b806001819055506032811015610482576103856040518060400160405280600781526020017f257320776f6e210000000000000000000000000000000000000000000000000081525033610723565b6000653691d6afc0009050478111156103d3576040517f08c379a00000000000000000000000000000000000000000000000000000000081526004016103ca90610d94565b60405180910390fd5b60003373ffffffffffffffffffffffffffffffffffffffff16826040516103f990610cbb565b60006040518083038185875af1925050503d8060008114610436576040519150601f19603f3d011682016040523d82523d6000602084013e61043b565b606091505b505090508061047f576040517f08c379a000000000000000000000000000000000000000000000000000000000815260040161047690610db4565b60405180910390fd5b50505b3373ffffffffffffffffffffffffffffffffffffffff167f440bf9b4ee6a27ccf5effb4d2d73820613be5e10dcd92945e991a58b5d83e3b542846040516104ca929190610def565b60405180910390a25050565b60606002805480602002602001604051908101604052809291908181526020016000905b8282101561061e57838290600052602060002090600302016040518060600160405290816000820160009054906101000a900473ffffffffffffffffffffffffffffffffffffffff1673ffffffffffffffffffffffffffffffffffffffff1673ffffffffffffffffffffffffffffffffffffffff16815260200160018201805461058390610fc5565b80601f01602080910402602001604051908101604052809291908181526020018280546105af90610fc5565b80156105fc5780601f106105d1576101008083540402835291602001916105fc565b820191906000526020600020905b8154815290600101906020018083116105df57829003601f168201915b50505050508152602001600282015481525050815260200190600101906104fa565b50505050905090565b600061066a6040518060400160405280601781526020017f5765206861766520256420746f74616c20536f6e6773210000000000000000008152506000546107bf565b600054905090565b60036020528060005260406000206000915090505481565b6107208160405160240161069e9190610cf2565b6040516020818303038152906040527f41304fac000000000000000000000000000000000000000000000000000000007bffffffffffffffffffffffffffffffffffffffffffffffffffffffff19166020820180517bffffffffffffffffffffffffffffffffffffffffffffffffffffffff838183161783525050505061085b565b50565b6107bb8282604051602401610739929190610d14565b6040516020818303038152906040527f319af333000000000000000000000000000000000000000000000000000000007bffffffffffffffffffffffffffffffffffffffffffffffffffffffff19166020820180517bffffffffffffffffffffffffffffffffffffffffffffffffffffffff838183161783525050505061085b565b5050565b61085782826040516024016107d5929190610d44565b6040516020818303038152906040527f9710a9d0000000000000000000000000000000000000000000000000000000007bffffffffffffffffffffffffffffffffffffffffffffffffffffffff19166020820180517bffffffffffffffffffffffffffffffffffffffffffffffffffffffff838183161783525050505061085b565b5050565b60008151905060006a636f6e736f6c652e6c6f679050602083016000808483855afa5050505050565b82805461089090610fc5565b90600052602060002090601f0160209004810192826108b257600085556108f9565b82601f106108cb57805160ff19168380011785556108f9565b828001600101855582156108f9579182015b828111156108f85782518255916020019190600101906108dd565b5b509050610906919061090a565b5090565b5b8082111561092357600081600090555060010161090b565b5090565b600061093a61093584610e50565b610e1f565b90508281526020810184848401111561095257600080fd5b61095d848285610f83565b509392505050565b600081359050610974816110f5565b92915050565b600082601f83011261098b57600080fd5b813561099b848260208601610927565b91505092915050565b6000602082840312156109b657600080fd5b60006109c484828501610965565b91505092915050565b6000602082840312156109df57600080fd5b600082013567ffffffffffffffff8111156109f957600080fd5b610a058482850161097a565b91505092915050565b6000610a1a8383610c4d565b905092915050565b610a2b81610f47565b82525050565b610a3a81610f47565b82525050565b6000610a4b82610e90565b610a558185610eb3565b935083602082028501610a6785610e80565b8060005b85811015610aa35784840389528151610a848582610a0e565b9450610a8f83610ea6565b925060208a01995050600181019050610a6b565b50829750879550505050505092915050565b6000610ac082610e9b565b610aca8185610ecf565b9350610ada818560208601610f92565b610ae3816110e4565b840191505092915050565b6000610af982610e9b565b610b038185610ee0565b9350610b13818560208601610f92565b610b1c816110e4565b840191505092915050565b6000610b34601f83610ee0565b91507f57616974206174206c65617374203330207365636f6e647320706c65617365006000830152602082019050919050565b6000610b74603483610ee0565b91507f547279696e6720746f207769746864726177206d6f7265206d6f6e657920746860008301527f616e2074686520636f6e7472616374206861732e0000000000000000000000006020830152604082019050919050565b6000610bda600083610ec4565b9150600082019050919050565b6000610bf4602c83610ee0565b91507f4661696c656420746f20207769746864726177206d6f6e65792066726f6d207460008301527f686520636f6e74726163742e00000000000000000000000000000000000000006020830152604082019050919050565b6000606083016000830151610c656000860182610a22565b5060208301518482036020860152610c7d8282610ab5565b9150506040830151610c926040860182610c9d565b508091505092915050565b610ca681610f79565b82525050565b610cb581610f79565b82525050565b6000610cc682610bcd565b9150819050919050565b60006020820190508181036000830152610cea8184610a40565b905092915050565b60006020820190508181036000830152610d0c8184610aee565b905092915050565b60006040820190508181036000830152610d2e8185610aee565b9050610d3d6020830184610a31565b9392505050565b60006040820190508181036000830152610d5e8185610aee565b9050610d6d6020830184610cac565b9392505050565b60006020820190508181036000830152610d8d81610b27565b9050919050565b60006020820190508181036000830152610dad81610b67565b9050919050565b60006020820190508181036000830152610dcd81610be7565b9050919050565b6000602082019050610de96000830184610cac565b92915050565b6000604082019050610e046000830185610cac565b8181036020830152610e168184610aee565b90509392505050565b6000604051905081810181811067ffffffffffffffff82111715610e4657610e456110b5565b5b8060405250919050565b600067ffffffffffffffff821115610e6b57610e6a6110b5565b5b601f19601f8301169050602081019050919050565b6000819050602082019050919050565b600081519050919050565b600081519050919050565b6000602082019050919050565b600082825260208201905092915050565b600081905092915050565b600082825260208201905092915050565b600082825260208201905092915050565b6000610efc82610f79565b9150610f0783610f79565b9250827fffffffffffffffffffffffffffffffffffffffffffffffffffffffffffffffff03821115610f3c57610f3b611028565b5b828201905092915050565b6000610f5282610f59565b9050919050565b600073ffffffffffffffffffffffffffffffffffffffff82169050919050565b6000819050919050565b82818337600083830152505050565b60005b83811015610fb0578082015181840152602081019050610f95565b83811115610fbf576000848401525b50505050565b60006002820490506001821680610fdd57607f821691505b60208210811415610ff157610ff0611086565b5b50919050565b600061100282610f79565b915061100d83610f79565b92508261101d5761101c611057565b5b828206905092915050565b7f4e487b7100000000000000000000000000000000000000000000000000000000600052601160045260246000fd5b7f4e487b7100000000000000000000000000000000000000000000000000000000600052601260045260246000fd5b7f4e487b7100000000000000000000000000000000000000000000000000000000600052602260045260246000fd5b7f4e487b7100000000000000000000000000000000000000000000000000000000600052604160045260246000fd5b6000601f19601f8301169050919050565b6110fe81610f47565b811461110957600080fd5b5056fea26469706673582212200dcd0a43152774605e2ca4f7f044b536432aeeef5966cb420347010f2e50116264736f6c634300080000334920616d206120736d61727420636f6e74726163742e2049206c69766520696e2074686520457468657265756d206e6574776f726b2e",
  "linkReferences": {},
  "deployedLinkReferences": {}
}