{
  "_format": "hh-sol-artifact-1",
  "contractName": "SongPortal",
  "sourceName": "contracts/SongPortal.sol",
  "abi": [
    {
      "inputs": [],
      "stateMutability": "payable",
      "type": "constructor"
    },
    {
      "anonymous": false,
      "inputs": [
        {
          "indexed": true,
          "internalType": "address",
          "name": "from",
          "type": "address"
        },
        {
          "indexed": false,
          "internalType": "uint256",
          "name": "timestamp",
          "type": "uint256"
        },
        {
          "indexed": false,
          "internalType": "string",
          "name": "message",
          "type": "string"
        }
      ],
      "name": "newSong",
      "type": "event"
    },
    {
      "inputs": [],
      "name": "getAllSongs",
      "outputs": [
        {
          "components": [
            {
              "internalType": "address",
              "name": "song_sender",
              "type": "address"
            },
            {
              "internalType": "string",
              "name": "message",
              "type": "string"
            },
            {
              "internalType": "uint256",
              "name": "timestamp",
              "type": "uint256"
            }
          ],
          "internalType": "struct SongPortal.Song[]",
          "name": "",
          "type": "tuple[]"
        }
      ],
      "stateMutability": "view",
      "type": "function"
    },
    {
      "inputs": [],
      "name": "getTotalSongs",
      "outputs": [
        {
          "internalType": "uint256",
          "name": "",
          "type": "uint256"
        }
      ],
      "stateMutability": "view",
      "type": "function"
    },
    {
      "inputs": [
        {
          "internalType": "address",
          "name": "",
          "type": "address"
        }
      ],
      "name": "lastWavedAt",
      "outputs": [
        {
          "internalType": "uint256",
          "name": "",
          "type": "uint256"
        }
      ],
      "stateMutability": "view",
      "type": "function"
    },
    {
      "inputs": [
        {
          "internalType": "string",
          "name": "_message",
          "type": "string"
        }
      ],
      "name": "song",
      "outputs": [],
      "stateMutability": "nonpayable",
      "type": "function"
    }
  ],
  "bytecode": "0x60806040526200003360405180606001604052806036815260200162001320603691396200003960201b6200068b1760201c565b620001cd565b620000d98160405160240162000050919062000146565b6040516020818303038152906040527f41304fac000000000000000000000000000000000000000000000000000000007bffffffffffffffffffffffffffffffffffffffffffffffffffffffff19166020820180517bffffffffffffffffffffffffffffffffffffffffffffffffffffffff8381831617835250505050620000dc60201b60201c565b50565b60008151905060006a636f6e736f6c652e6c6f679050602083016000808483855afa5050505050565b600062000112826200016a565b6200011e818562000175565b93506200013081856020860162000186565b6200013b81620001bc565b840191505092915050565b6000602082019050818103600083015262000162818462000105565b905092915050565b600081519050919050565b600082825260208201905092915050565b60005b83811015620001a657808201518184015260208101905062000189565b83811115620001b6576000848401525b50505050565b6000601f19601f8301169050919050565b61114380620001dd6000396000f3fe608060405234801561001057600080fd5b506004361061004c5760003560e01c8063236292741461005157806329ef68621461006d5780638c9db2b41461008b578063a42a4663146100a9575b600080fd5b61006b600480360381019061006691906109ce565b6100d9565b005b6100756104d7565b6040516100829190610cd1565b60405180910390f35b610093610628565b6040516100a09190610dd5565b60405180910390f35b6100c360048036038101906100be91906109a5565b610673565b6040516100d09190610dd5565b60405180910390f35b42610384600360003373ffffffffffffffffffffffffffffffffffffffff1673ffffffffffffffffffffffffffffffffffffffff168152602001908152602001600020546101279190610ef2565b10610167576040517f08c379a000000000000000000000000000000000000000000000000000000000815260040161015e90610d95565b60405180910390fd5b42600360003373ffffffffffffffffffffffffffffffffffffffff1673ffffffffffffffffffffffffffffffffffffffff1681526020019081526020016000208190555060016000808282546101bd9190610ef2565b925050819055506102036040518060400160405280600f81526020017f25732073656e74206120736f6e6721000000000000000000000000000000000081525033610724565b600260405180606001604052803373ffffffffffffffffffffffffffffffffffffffff16815260200183815260200142815250908060018154018082558091505060019003906000526020600020906003020160009091909190915060008201518160000160006101000a81548173ffffffffffffffffffffffffffffffffffffffff021916908373ffffffffffffffffffffffffffffffffffffffff16021790555060208201518160010190805190602001906102c2929190610885565b506040820151816002015550506000606460015442446102e29190610ef2565b6102ec9190610ef2565b6102f69190610ff8565b90506103376040518060400160405280601881526020017f52616e646f6d206e756d2067656e6572617465643a2025730000000000000000815250826107c0565b806001819055506032811015610483576103866040518060400160405280600781526020017f257320776f6e210000000000000000000000000000000000000000000000000081525033610724565b6000653691d6afc0009050478111156103d4576040517f08c379a00000000000000000000000000000000000000000000000000000000081526004016103cb90610d75565b60405180910390fd5b60003373ffffffffffffffffffffffffffffffffffffffff16826040516103fa90610cbc565b60006040518083038185875af1925050503d8060008114610437576040519150601f19603f3d011682016040523d82523d6000602084013e61043c565b606091505b5050905080610480576040517f08c379a000000000000000000000000000000000000000000000000000000000815260040161047790610db5565b60405180910390fd5b50505b3373ffffffffffffffffffffffffffffffffffffffff167f440bf9b4ee6a27ccf5effb4d2d73820613be5e10dcd92945e991a58b5d83e3b542846040516104cb929190610df0565b60405180910390a25050565b60606002805480602002602001604051908101604052809291908181526020016000905b8282101561061f57838290600052602060002090600302016040518060600160405290816000820160009054906101000a900473ffffffffffffffffffffffffffffffffffffffff1673ffffffffffffffffffffffffffffffffffffffff1673ffffffffffffffffffffffffffffffffffffffff16815260200160018201805461058490610fc6565b80601f01602080910402602001604051908101604052809291908181526020018280546105b090610fc6565b80156105fd5780601f106105d2576101008083540402835291602001916105fd565b820191906000526020600020905b8154815290600101906020018083116105e057829003601f168201915b50505050508152602001600282015481525050815260200190600101906104fb565b50505050905090565b600061066b6040518060400160405280601781526020017f5765206861766520256420746f74616c20536f6e6773210000000000000000008152506000546107c0565b600054905090565b60036020528060005260406000206000915090505481565b6107218160405160240161069f9190610cf3565b6040516020818303038152906040527f41304fac000000000000000000000000000000000000000000000000000000007bffffffffffffffffffffffffffffffffffffffffffffffffffffffff19166020820180517bffffffffffffffffffffffffffffffffffffffffffffffffffffffff838183161783525050505061085c565b50565b6107bc828260405160240161073a929190610d15565b6040516020818303038152906040527f319af333000000000000000000000000000000000000000000000000000000007bffffffffffffffffffffffffffffffffffffffffffffffffffffffff19166020820180517bffffffffffffffffffffffffffffffffffffffffffffffffffffffff838183161783525050505061085c565b5050565b61085882826040516024016107d6929190610d45565b6040516020818303038152906040527f9710a9d0000000000000000000000000000000000000000000000000000000007bffffffffffffffffffffffffffffffffffffffffffffffffffffffff19166020820180517bffffffffffffffffffffffffffffffffffffffffffffffffffffffff838183161783525050505061085c565b5050565b60008151905060006a636f6e736f6c652e6c6f679050602083016000808483855afa5050505050565b82805461089190610fc6565b90600052602060002090601f0160209004810192826108b357600085556108fa565b82601f106108cc57805160ff19168380011785556108fa565b828001600101855582156108fa579182015b828111156108f95782518255916020019190600101906108de565b5b509050610907919061090b565b5090565b5b8082111561092457600081600090555060010161090c565b5090565b600061093b61093684610e51565b610e20565b90508281526020810184848401111561095357600080fd5b61095e848285610f84565b509392505050565b600081359050610975816110f6565b92915050565b600082601f83011261098c57600080fd5b813561099c848260208601610928565b91505092915050565b6000602082840312156109b757600080fd5b60006109c584828501610966565b91505092915050565b6000602082840312156109e057600080fd5b600082013567ffffffffffffffff8111156109fa57600080fd5b610a068482850161097b565b91505092915050565b6000610a1b8383610c4e565b905092915050565b610a2c81610f48565b82525050565b610a3b81610f48565b82525050565b6000610a4c82610e91565b610a568185610eb4565b935083602082028501610a6885610e81565b8060005b85811015610aa45784840389528151610a858582610a0f565b9450610a9083610ea7565b925060208a01995050600181019050610a6c565b50829750879550505050505092915050565b6000610ac182610e9c565b610acb8185610ed0565b9350610adb818560208601610f93565b610ae4816110e5565b840191505092915050565b6000610afa82610e9c565b610b048185610ee1565b9350610b14818560208601610f93565b610b1d816110e5565b840191505092915050565b6000610b35603483610ee1565b91507f547279696e6720746f207769746864726177206d6f7265206d6f6e657920746860008301527f616e2074686520636f6e7472616374206861732e0000000000000000000000006020830152604082019050919050565b6000610b9b601f83610ee1565b91507f57616974206174206c65617374203135206d696e7574657320706c65617365006000830152602082019050919050565b6000610bdb600083610ec5565b9150600082019050919050565b6000610bf5602c83610ee1565b91507f4661696c656420746f20207769746864726177206d6f6e65792066726f6d207460008301527f686520636f6e74726163742e00000000000000000000000000000000000000006020830152604082019050919050565b6000606083016000830151610c666000860182610a23565b5060208301518482036020860152610c7e8282610ab6565b9150506040830151610c936040860182610c9e565b508091505092915050565b610ca781610f7a565b82525050565b610cb681610f7a565b82525050565b6000610cc782610bce565b9150819050919050565b60006020820190508181036000830152610ceb8184610a41565b905092915050565b60006020820190508181036000830152610d0d8184610aef565b905092915050565b60006040820190508181036000830152610d2f8185610aef565b9050610d3e6020830184610a32565b9392505050565b60006040820190508181036000830152610d5f8185610aef565b9050610d6e6020830184610cad565b9392505050565b60006020820190508181036000830152610d8e81610b28565b9050919050565b60006020820190508181036000830152610dae81610b8e565b9050919050565b60006020820190508181036000830152610dce81610be8565b9050919050565b6000602082019050610dea6000830184610cad565b92915050565b6000604082019050610e056000830185610cad565b8181036020830152610e178184610aef565b90509392505050565b6000604051905081810181811067ffffffffffffffff82111715610e4757610e466110b6565b5b8060405250919050565b600067ffffffffffffffff821115610e6c57610e6b6110b6565b5b601f19601f8301169050602081019050919050565b6000819050602082019050919050565b600081519050919050565b600081519050919050565b6000602082019050919050565b600082825260208201905092915050565b600081905092915050565b600082825260208201905092915050565b600082825260208201905092915050565b6000610efd82610f7a565b9150610f0883610f7a565b9250827fffffffffffffffffffffffffffffffffffffffffffffffffffffffffffffffff03821115610f3d57610f3c611029565b5b828201905092915050565b6000610f5382610f5a565b9050919050565b600073ffffffffffffffffffffffffffffffffffffffff82169050919050565b6000819050919050565b82818337600083830152505050565b60005b83811015610fb1578082015181840152602081019050610f96565b83811115610fc0576000848401525b50505050565b60006002820490506001821680610fde57607f821691505b60208210811415610ff257610ff1611087565b5b50919050565b600061100382610f7a565b915061100e83610f7a565b92508261101e5761101d611058565b5b828206905092915050565b7f4e487b7100000000000000000000000000000000000000000000000000000000600052601160045260246000fd5b7f4e487b7100000000000000000000000000000000000000000000000000000000600052601260045260246000fd5b7f4e487b7100000000000000000000000000000000000000000000000000000000600052602260045260246000fd5b7f4e487b7100000000000000000000000000000000000000000000000000000000600052604160045260246000fd5b6000601f19601f8301169050919050565b6110ff81610f48565b811461110a57600080fd5b5056fea264697066735822122080c67ba3c99783f4d7fcdcd3f422f5e2bdd490047d83cb3a92ee1e0906636f2764736f6c634300080000334920616d206120736d61727420636f6e74726163742e2049206c69766520696e2074686520457468657265756d206e6574776f726b2e",
  "linkReferences": {},
  "deployedLinkReferences": {}
}